:020000040800F2
:10000000F806002029020008C51C00082518000871
:10001000C11C000831030008E91C000800000000B2
:10002000000000000000000000000000CD1C0008DF
:100030003503000800000000C91C0008D11C00089E
:10004000430200084302000843020008430200087C
:10005000430200084302000843020008430200086C
:100060004302000839030008430200084302000865
:10007000430200084302000843020008430200084C
:10008000430200084302000843020008430200083C
:10009000430200084302000843020008410300082D
:1000A000430200084302000843020008430200081C
:1000B000430200084302000843020008430200080C
:1000C00043020008430200084302000843020008FC
:1000D00043020008430200084302000843020008EC
:1000E00043020008430200084302000843020008DC
:1000F00043020008430200084302000843020008CC
:1001000000000000000000000000000043020008A2
:1001100043020008430200084302000843020008AB
:10012000430200084302000843020008430200089B
:100130004302000843020008000000000000000025
:1001400043020008430200084302000800000000C8
:10015000000000000000000000000000000000009F
:1001600000000000000000004302000843020008F5
:100170004302000800000000000000000000000032
:10018000000000004302000800F002F800F03CF814
:100190000AA090E8000C82448344AAF10107DA45E2
:1001A00001D100F031F8AFF2090EBAE80F0013F0F8
:1001B000010F18BFFB1A43F001031847281C000069
:1001C000481C0000103A24BF78C878C1FAD85207FA
:1001D00024BF30C830C144BF04680C6070470000C1
:1001E0000023002400250026103A28BF78C1FBD840
:1001F000520728BF30C148BF0B6070471FB501F0E0
:10020000CBFD1FBD10B510BD00F058F81146FFF72B
:10021000F5FF01F06BFD00F076F803B4FFF7F2FF95
:1002200003BC00F07DF800000948804709480047FA
:10023000FEE7FEE7FEE7FEE7FEE7FEE7FEE7FEE796
:10024000FEE7FEE704480549054A064B70470000F3
:10025000D51C000889010008F8000020F8060020DD
:10026000F8020020F80200204FF0000200B513460B
:1002700094469646203922BFA0E80C50A0E80C50C6
:10028000B1F12001BFF4F7AF090728BFA0E80C5077
:1002900048BF0CC05DF804EB890028BF40F8042B70
:1002A00008BF704748BF20F8022B11F0804F18BFDD
:1002B00000F8012B7047704770477047754600F093
:1002C0002BF8AE4605006946534620F007008546E8
:1002D00018B020B5FFF7B6FFBDE820404FF000068C
:1002E0004FF000074FF000084FF0000BAC46ACE8B1
:1002F000C009ACE8C009ACE8C009ACE8C00921F00D
:1003000007018D46704710B50446AFF300802046C4
:10031000BDE81040FFF781BF004870471000002083
:1003200001491820ABBEFEE726000200704700001E
:10033000FEE7000070470000082000F009BA000046
:100340004FF4807000F004BAEFF3108072B600BF73
:10035000FEE700002DE9F04385B040F2A805044611
:10036000012603A8C2F200054FF000084FF0C809AB
:10037000CDE900062846A521042201238DF80C8032
:10038000CDF8089000F086FB9DF80C00022767F37B
:1003900006108DF80C008DF80D000DF10D00CDE963
:1003A00000062846A42104220123CDF8089000F07D
:1003B000A7FC0020C4F2C82020610DF10E00677375
:1003C000CDE900062846A521042201238DF80E80E0
:1003D000CDF8089000F05EFB9DF80E00A42167F3B5
:1003E00002008DF80E008DF80F000DF10F00CDE921
:1003F0000006284604220123CDF8089000F080FC76
:1004000004A82773CDE900062846A521052201236B
:100410008DF81080CDF8089000F03CFB9DF810009E
:10042000A42166F302008DF810008DF811000DF183
:100430001100CDE90006284605220123CDF80890D9
:1004400000F05EFC0020C4F24000A0600DF112003C
:100450002671CDE900062846A521002201238DF84A
:100460001280CDF8089000F015FB9DF81200A42131
:1004700040F002008DF812008DF813000DF113000A
:100480000090284600220123CDF80890019600F044
:1004900037FCE67005B0BDE8F0830000B0B584B06D
:1004A000044601200DF10F01CDE9001040F2A80033
:1004B000C825C2F20000A52107220123029500F001
:1004C000E9FA9DF80F00C0F340112175C0F3001147
:1004D000C0F3C000A176607510B9206B25E000BFA5
:1004E00004F124000621CDE9000140F2A800C2F287
:1004F0000000A5210A220123029500F0CBFA94F80E
:10050000251094F8262094F82400090241EA0241BB
:10051000014494F8280094F8292094F82730000228
:1005200040EA02401844C4E90B1000EE100A94EDB2
:10053000021A94ED042A9FED073AB8EE400A80EEC5
:10054000010A83EE021A20EE010A84ED0D0A04B0BE
:10055000B0BD00BF0000C8422DE9F04387B040F2B3
:10056000A805044601260DF11100C2F200054FF066
:1005700000084FF0C809CDE900062846A521002251
:1005800001238DF81180CDF8089000F083FA9DF8D2
:100590001100A42140F010008DF811008DF8120018
:1005A0000DF11200CDE90006284600220123CDF806
:1005B000089000F0A5FB642000F0B4F80DF11300E2
:1005C000CDE900062846A52107220123CDF8089091
:1005D00000F060FA9DF81300A670C0F34011217579
:1005E000C0F30011C0F3C0006075601CA176CDE9B6
:1005F00000062846A52106220123CDF8089000F028
:1006000049FA05A8CDE900062846A52119220123AB
:100610008DF81480CDF8089000F03CFA9DF8140095
:10062000A42120F008008DF814008DF815000DF1BC
:100630001500CDE90006284619220123CDF80890BF
:1006400000F05EFB0DF1160084F81880CDE900067D
:100650002846A521192201238DF81680CDF808908F
:1006600000F018FA9DF81600A42120F030008DF853
:1006700016008DF817000DF11700CDE90006284689
:1006800019220123CDF8089000F03AFB06A884F85F
:100690001780CDE900062846A5211A2201238DF8EE
:1006A0001880CDF8089000F0F5F99DF8180004279F
:1006B00067F31F108DF818008DF819000DF119005F
:1006C000CDE900062846A4211A220123CDF808907E
:1006D00000F016FB0DF11A006776CDE900062846FA
:1006E000A521192201238DF81A80CDF8089000F079
:1006F000D1F99DF81A00A42120F004008DF81A0009
:100700008DF81B000DF11B00CDE9000628461922CB
:100710000123CDF8089000F0F3FA84F8168007B0B2
:10072000BDE8F083B0B5044600F012F9054640F28A
:100730000000C2F200000078611C18BF044400BF32
:1007400000F006F9401BA042FAD3B0BD704700008C
:1007500040F21441C4F201010A68024214BF086069
:100760007047FFF7F3BF00002DE9F04F84B08E46CD
:1007700041F20002C4F60002DEF80040052190427A
:10078000019008BF0421002C009100F0D78001984F
:10079000002500F138424FEAB223009801270026D5
:1007A0004FF00008042B38BF18460090CDF808E041
:1007B0000EE000BFDEF8004008F1010834FA07F14E
:1007C00006F1020607F1010705F1040500F0B68005
:1007D000A7F1010A012000FA0AF314EA0309E9D09B
:1007E000DEF804C00CF0030BABF10104012C17D8A8
:1007F0000198744681680322E468B2409143B44092
:100800002143816041684FEA480E9943CCF30013BD
:1008100003FA0AF30446D043194361600CE000BFB9
:100820000321B140019CC843BBF1030FB64603D17D
:10083000B6464FF0030B23E0E168029A014093684B
:10084000BBF1020F03FA0EF341EA0301E16017D195
:100850006FF0030101EA5A01214405F01C040F2343
:10086000D1F820C003FA04FB13692CEA0B0CA34057
:1008700043EA0C03019C0B62D2F804C00CF0030B9A
:1008800021680BFA0EF2014011432160DDF808E007
:100890001CF4403F8ED041F21800C4F202000168FF
:1008A00040F2004C41F0010101600168C4F2010C0A
:1008B00001F00101039103992AF003014FF6084A60
:1008C0006144CFF6FF7A05F00C030F2051F80A209F
:1008D00000FA03F40098A24300FA03F31A4341F824
:1008E0000A20DCF80010DEF8042041EA0903D403F2
:1008F00058BF21EA0903CCF80030DCF80410940357
:1009000041EA090358BF21EA0903CCF80430DCF8B6
:10091000081040F20C4041EA0903D40258BF21EA12
:100920000903CCF80830C4F201000168920241EAE0
:10093000090358BF21EA090303603BE704B0BDE89F
:10094000F08F00001823002A08BF2823C1507047E9
:1009500040F2F400C2F200000068704790F84120B5
:10096000202A03D190F84020012A01D102207047AB
:10097000242280F841200268136823F001031360E9
:10098000136823F4805313601368194311601168CE
:1009900041F001011160202180F84110002180F810
:1009A000401008467047000090F84120202A03D1EB
:1009B00090F84020012A01D102207047242280F8BB
:1009C00041200268136823F001031360136823F4C5
:1009D000706343EA01211160116841F00101116067
:1009E000202180F84110002180F84010084670470F
:1009F000002804BF0120704710B5044690F841005C
:100A000028B9002084F84000204600F085FA242010
:100A100084F8410094E80910E2680168012A21F095
:100A20000101016023F070610161816821F40041DE
:100A3000816003D14CF40041816007E04CF4044133
:100A4000022A816004BF4FF400614160416804F1F3
:100A5000100C41F0007141F400414160C16821F483
:100A60000041C1609CE80E10114341EA0321C160BE
:100A7000216A41EA0C010160016841F00101016055
:100A800000202021606484F84110206384F8420033
:100A900010BD00002DE9F04F83B0044690F84100EE
:100AA00020280DD1DDF830A0BAF1000F0CD0DDF810
:100AB00034B0BBF1000F07D094F8400001280BD1EF
:100AC000022003B0BDE8F08F4FF400706064012095
:100AD00003B0BDE8F08F00BF01201F4615468946D0
:100AE00084F84000FFF734FF21680646896909044D
:100AF0000AD500BFFFF72CFF801B192800F2F080F9
:100B0000206880690004F5D40E99222084F8410001
:100B100040204FF0000884F84200C4F84480C4F834
:100B200024A08A46A4F82AB0C4F834800091204654
:100B300049462A463B46019600F0D0FE30B184F883
:100B40004080012003B0BDE8F08F00BF608D5546A6
:100B5000B0F5807F12D3206849F600024168C7F6DD
:100B6000004211406FF39F2942F200424944C8F20B
:100B7000FF1211434160FF2115E000BF618D206825
:100B800049F600034268C7F600431A406FF39F29F5
:100B9000CBB249EA03431A44A2F1FC42A2F55C42FB
:100BA00002F58032426049F6004840F2000BCFF671
:100BB00000486F1C4FF0FF0AC0F2FF1B21858169BE
:100BC00049070FD4002F3DD0002D00F0878000BFD3
:100BD000FFF7BEFE801BA84200F282802068816978
:100BE0004907F5D5406A616A0870606A218D013055
:100BF0006062481E2085618D01396185618D002903
:100C000048D0000446D12068816909060BD43FB35F
:100C1000002D63D0FFF79CFE801BA84260D820689F
:100C200081690906F6D5618DB1F5807F26D3A4F8D8
:100C300028A0416801EA080141EA090141EA0B01E3
:100C400027E000BF81694907CCD4816949075CBFAF
:100C500081695FEA4171C5D481694907F2D5C1E76D
:100C600081690906DFD4816909065CBF81695FEA91
:100C70000161D8D481690906F2D5D4E7618D218557
:100C80004268C9B202EA080249EA0141114341F04F
:100C900000714160608D28B12068816949077FF546
:100CA00091AF9FE720462946324600F0F7FE002824
:100CB0007FF40DAF20682021C16142684EF6000329
:100CC000CFF600631A404260002084F8411084F897
:100CD000420084F8400003B0BDE8F08FFFF738FE13
:100CE000606C40F020006064202084F84100002007
:100CF00084F8420084F84000012003B0BDE8F08F82
:100D00002DE9F04F83B0044690F8410020280DD122
:100D1000DDF830A0BAF1000F0CD0DDF834B0BBF133
:100D2000000F07D094F8400001280BD1022003B037
:100D3000BDE8F08F4FF400706064012003B0BDE89F
:100D4000F08F00BF01201F461546894684F84000F9
:100D5000FFF7FEFD21680646896909040AD500BF30
:100D6000FFF7F6FD801B192800F2C6802068806915
:100D70000004F5D40E99212084F8410040204FF062
:100D8000000884F84200C4F84480C4F824A08A46CD
:100D9000A4F82AB0C4F834800091204649462A4677
:100DA0003B46019600F00AFE30B184F840800120F5
:100DB00003B0BDE8F08F00BF608D554649F600488E
:100DC00040F2000ACFF60048B0F5807FC0F2FF1A6B
:100DD0000CD320686FF39F29416801EA080141EABA
:100DE000090141EA0A014160FF200DE0608D2168A0
:100DF0006FF39F294A68C3B202EA080249EA034333
:100E00001A4342F000724A606F1C4FF0FF0B2085BE
:100E10000FE000BF618D21854268C9B202EA080275
:100E200049EA0141114341F000714160608D0028A1
:100E300044D020462946324600F066FE00287FF462
:100E40007CAF616A206811F8012B82626162618D5A
:100E500001396185218D01392185628D002AE5D016
:100E60000904E3D1816909060BD4CFB1002D41D02B
:100E7000FFF76EFD801BA8423ED8206881690906F5
:100E8000F6D5618DB1F5807FC4D3A4F828B0416850
:100E900001EA080141EA090141EA0A01C5E700BF88
:100EA00081690906EDD4816909065CBF81695FEA41
:100EB0000161E6D481690906F2D5E2E720462946B8
:100EC000324600F0EBFD00287FF437AF2068202188
:100ED000C16142684EF60003CFF600631A404260DB
:100EE000002084F8411084F8420084F8400003B0E8
:100EF000BDE8F08FFFF72CFD606C40F020006064CF
:100F0000202084F84100002084F8420084F840004A
:100F1000012003B0BDE8F08F10B586B0006845F23F
:100F20000041C4F20001884202D006B010BD00BFEB
:100F300041F21404C4F20204206801A940F48020A4
:100F40002060206800F48020019001984FF44070E8
:100F500001901220029000200390032004900420AE
:100F6000059040F20040C4F60000FFF7FDFBA068CA
:100F700040F40010A060A06800F4001000900098F9
:100F800006B010BD40F2000040F2F401C2F20000D1
:100F9000C2F2000100780A6810440860704700003F
:100FA00080B542F20000C4F20200016841F0100175
:100FB0000160032000F082F80F2000F005F800F037
:100FC00027F8002080BD000070B540F20006C2F294
:100FD000000640F208013278C2F200014FF47A7341
:100FE0000968B3FBF2F20446B1FBF2F1084600F0E7
:100FF00003FC0F2C4FF0010508D838B94FF0FF3033
:1010000021460022002500F02DF87460284670BDAE
:1010100082B041F21800C4F20200016841F00101FF
:101020000160016801F0010101910199416841F0FD
:1010300080514160406800F080500090009802B0FC
:1010400070470000002848BF704700F01F010122D0
:1010500002FA01F14EF200124009CEF2000242F80B
:101060002010704710B54EF60C5CCEF2000CDCF888
:101070000030C3F3022E8EF00704042C28BF042492
:10108000BEF103034FF0FF3E0EFA04F438BF002315
:10109000A14399400EFA03F39A43114300F00F0263
:1010A000043A624409010C3200F16043B0F1FF3FA1
:1010B000C8BF03F56442117010BD00004EF60C511C
:1010C000CEF200010A684FF6FF031A4060F30A22CD
:1010D00042F0806040F0FD70086070472DE9F041FB
:1010E00082B00446807841F23006C007C4F202069E
:1010F00056D056F8140C10F080580BD156F8140C3A
:1011000040F0805046F8140C56F8140C00F0805053
:101110000190019847F20007C4F200073868C00543
:1011200012D4386840F480703860FFF711FC05462F
:101130003868C00508D4FFF70BFC401B6428F7D9BA
:10114000032002B0BDE8F08156F8100C10F4407096
:1011500015D0616801F44071884210D056F8100C27
:1011600040F24042C4F24222012320F44071136055
:101170000023C007136046F8101C40F0A38056F807
:10118000100C616820F440700843B8F1000F46F875
:10119000100C05D156F8140C20F0805046F8140CB1
:1011A0002068C1071CD1810722D4410728D48106B9
:1011B0002ED4810334D441063CD4010742D4C10665
:1011C00048D481054ED4010656D4C1055ED4C1046D
:1011D00066D480046CD4002002B0BDE8F08100BF6A
:1011E0003168A26821F00301114331608107DCD529
:1011F0003168E26821F44031114331604107D6D5AE
:101200003168226921F44021114331608106D0D533
:101210003168E26921F01001114331608103CAD5C0
:1012200056F82C1CA26B21F48001114346F82C1CAB
:101230004106C2D53168226A21F020011143316094
:101240000107BCD53168626921F440111143316056
:10125000C106B6D53168A26921F44001114331605D
:101260008105B0D556F82C1CE26A21F40001114327
:1012700046F82C1C0106A8D556F8041C626A21F415
:10128000F871114346F8041CC105A0D556F8041C9A
:10129000A26A21F47851114346F8041CC10498D580
:1012A0003168226B21F4807111433160800492D542
:1012B0003068616B20F4007008433060002002B099
:1012C000BDE8F081FFF744FB054641F2883700BFD7
:1012D00056F8100C80073FF552AFFFF739FB401B63
:1012E000B8424FF00300F3D9E9E700002DE9F043DD
:1012F00081B0002877D042F20008C4F20208044608
:10130000D8F800000D4600F0070088420CD2D8F84B
:10131000000020F007002843C8F80000D8F80000BB
:1013200000F00700A8425ED1206841F2040981075D
:10133000C4F2020907D5D9F80010A26821F0F00123
:101340001143C9F80010C00744D1D8F8000000F0DC
:101350000700A8420CD9D8F8000020F00700284365
:10136000C8F80000D8F8000000F00700A8423AD101
:101370002068410707D5D9F80010E26821F4E06140
:101380001143C9F80010000708D5D9F800002169F9
:1013900020F4605040EAC100C9F80000D9F80020EC
:1013A00002F00C00082841F20020C0F27A0051D16E
:1013B00041F6C253C2F38341C0F60003595CD9F829
:1013C0002830D2033CD440F60010C0F23D00484320
:1013D00040E000BF606802280AD001282AD159F8ED
:1013E000041C890308D4012001B0BDE8F08300BFCC
:1013F00059F8041C8901F6D5D9F8001021F0030131
:101400000843C9F80000FFF7A3FA064641F28837FF
:10141000D9F80000616800F00C00B0EB810F94D0A7
:10142000FFF796FA801BB842F2D9032001B0BDE85D
:10143000F08300BF59F8041C8907D4D5DCE700BF4E
:1014400003F00F0241F6D253C0F600039A5CB0FBE2
:10145000F2F04843D9F8001041F6B252C1F303113B
:10146000C0F60002515C40F2080220FA01F140F29D
:101470000400C2F200000068C2F200021160FFF72F
:10148000A3FD002001B0BDE8F08300002DE9F0418C
:1014900082B0002850D00446007841F20006C00710
:1014A000C4F202060AD0706800F00C00042840F074
:1014B00085803068800301D56068E8B320788007B4
:1014C0001AD5706810F00C0F09D0706800F00C008D
:1014D000082840F0A5807068C00300F1A180306842
:1014E000800702D52069012826D13068616920F083
:1014F000F80040EAC10030602078000720D420784E
:10150000400735D4E56995B1706800F00C000828F3
:1015100040F0C280012D0FD07068216A00F4803243
:101520008A4209D1616A00F47010884204D1002017
:1015300002B0BDE8F08100BF012002B0BDE8F0813B
:10154000A069002800F094800020C4F2422001210C
:10155000C0F88014FFF7FCF9054600BF706A8007E9
:10156000CDD4FFF7F5F9401B0228F7D91CE100BFE5
:10157000F06910F0805808D1F06940F08050F061B7
:10158000F06900F080500190019847F20007C4F222
:1015900000073868C00559D4386840F48070386056
:1015A000FFF7D6F9054600BF3868C0054ED4FFF7EF
:1015B000CFF9401B6428F7D9F6E000BF706800F04F
:1015C0000C00082803D17068C0033FF572AF606853
:1015D000B0F5A02F00F09480B0F5803F00F094802B
:1015E000002840F09580306820F48030306030680A
:1015F00020F480203060F06AA16820F00F000843DA
:10160000F062FFF7A5F90546306880037FF556AF15
:10161000FFF79EF9401B64284FF00300F4D987E7D9
:101620002069002840F20000C4F2422056D0012177
:101630000160FFF78DF90546306880073FF555AF2B
:10164000FFF786F9401B0228F6D9ADE0E0680028D4
:1016500000F07A80052800F09180012800F0928047
:10166000306A20F001003062306A20F004008CE023
:101670000020C4F242200021C0F88014FFF768F96E
:10168000054600BF706A80077FF539AFFFF760F944
:10169000401B0228F6D987E00027C4F24227002029
:1016A0003866FFF755F9022D05460BD130688001E9
:1016B00040F18880FFF74CF9401B02284FF00300EF
:1016C000F4D935E7306880017FF531AFFFF740F995
:1016D000401B02284FF00300F4D929E700210160E4
:1016E000FFF736F9054600BF306880077FF504AF85
:1016F000FFF72EF9401B02284FF00300F4D917E73B
:10170000306840F480203060306840F4803006E07B
:10171000306820F480303060306820F48020306001
:10172000F06AA16820F00F000843F062FFF710F99B
:10173000054600BF306880033FF5C0AEFFF708F9EB
:10174000401B6428F6D92FE0306A20F00100306297
:10175000306A20F004003062FFF7FAF8054641F2E3
:10176000883700BF306A800722D5FFF7F1F8401BA9
:10177000B8424FF00300F5D9DAE600BF306A40F016
:1017800004003062306A40F001003062FFF7E0F898
:10179000054641F2883700BF306A800708D4FFF75A
:1017A000D7F8401BB842F7D9032002B0BDE8F0815A
:1017B000B8F1000F7FF4A6AEF06920F08050F06120
:1017C000A0E600BF7068D4E9082120F47410084333
:1017D0001043706001203866FFF7BAF8044600BF76
:1017E000306880013FF5A3AEFFF7B2F8001B022876
:1017F0004FF00300F4D99BE6411E0020B0EB116FBF
:101800001CBF012070474EF21002CEF20002516060
:101810004EF62351CEF20001F0230B7007219060A9
:1018200011607047FEE7000070B504460068154679
:101830008369DA065CBF002070BD0E4641688901ED
:1018400003D4416841F4804141608169890610D424
:10185000002E3FD0711C35D18169890609D4816978
:1018600089065CBF81695FEA816102D4816989066A
:10187000F2D51021C1612021C1618169890744BF6E
:10188000002181628169C90703D1816941F00101A9
:10189000816141684EF60002CFF60062114041605E
:1018A0000420616C08436064202084F8410000201B
:1018B00084F8420084F84000012070BD20688169EE
:1018C0008906D6D4FFF744F8401BB042F6D9202051
:1018D000E7E700BFFFF73CF82020E2E72DE9F04101
:1018E000044600681D461746426849F60003C7F6DD
:1018F00000431A406FF39F21EBB241EA03411144C8
:10190000DDF81C80069E41F0004141F40051416029
:1019100020463146424600F0F7F818B10120BDE8F4
:10192000F08100BF012D09D02068390A816220466C
:101930003146424600F0E8F80028EFD12168F8B2BD
:1019400088628869400623D436B3701C18D1886930
:1019500040061DD4886940065CBF88695FEA406024
:1019600016D4886940064FF00000F0D523E000BF90
:101970002068806940064FF0000048BFBDE8F08154
:10198000FEF7E6FFA0EB0800B042F1D906E000BF89
:101990000020BDE8F08100BFFEF7DAFF606C40F088
:1019A00020006064202084F84100002084F8420078
:1019B00084F840000120BDE8F08100002DE9F041ED
:1019C000044600681D461746426849F60003C7F6FC
:1019D00000431A406FF39F21EBB241EA03411144E7
:1019E000DDF81C80069E41F0014141F40051416048
:1019F00020463146424600F087F818B10120BDE884
:101A0000F08100BF012D09D02068390A816220468B
:101A10003146424600F078F80028EFD12168F8B24C
:101A200088628869000623D436B3701C18D188698F
:101A300000061DD4886900065CBF88695FEA006003
:101A400016D4886900064FF00000F0D523E000BFEF
:101A50002068806900064FF0000048BFBDE8F081B3
:101A6000FEF776FFA0EB0800B042F1D906E000BF18
:101A70000020BDE8F08100BFFEF76AFF606C40F017
:101A800020006064202084F84100002084F8420097
:101A900084F840000120BDE8F081000070B51546D3
:101AA000044689B10E4600BF20688069800619D4BB
:101AB000204631462A46FFF7B7FE88B9FEF748FFB1
:101AC000401BB042F0D911E020688069800644BF15
:101AD000002070BD204600212A46FFF7A5FE18B160
:101AE000012070BD002070BDFEF732FF606C40F039
:101AF00020006064202084F84100002084F8420027
:101B000084F84000012070BD70B50446006880690B
:101B1000800710D415460E4611B3701C17D100BFB4
:101B200020464FF0FF312A46FFF77EFEF0B92068CD
:101B300080698007F4D5002070BD00BFFEF708FF64
:101B4000401BB04216D8206880698007F3D4204635
:101B500031462A46FFF768FE0028EFD006E000BFB6
:101B6000204600212A46FFF75FFE08B1012070BD24
:101B7000FEF7EEFE606C40F020006064202084F8E8
:101B80004100002084F8420084F84000012070BD2C
:101B90002DE9F04186B0002641F21400CDE904663B
:101BA000C4F20200016840F2004441F400210160E7
:101BB0000168C4F6000401F4002100910099016855
:101BC000012241F48001016001684FF0400801F4F6
:101BD0008001009100990168012741F40031016002
:101BE000016801F4003100910099016841F48021FD
:101BF00001600068402100F4802000900098204699
:101C0000FEF7A0FE4FF4847001904FF4041001AD74
:101C1000CDE902064FF090402946FEF7A5FD20468B
:101C20002946CDE90187CDE90367FEF79DFD09202F
:101C300000210022FFF716FA0920FFF703FA172008
:101C400000210022FFF70EFA1720FFF7FBF906B07C
:101C5000BDE8F08180B540F2A80045F20041C2F233
:101C60000000C4F2000148F6D3520023C1F2800202
:101C70004FF0010C80E80E10C0E90433C0E90633D0
:101C80000362FEF7B5FE002818BFFEF75DFB40F2C9
:101C9000A800C2F200000021FEF760FE002818BF75
:101CA000FEF752FB40F2A800C2F200000021FEF74E
:101CB0007BFE002808BF80BDBDE88040FEF744BB26
:101CC000FEE70000FEE700007047000070470000DC
:101CD000FFF758B94EF68850CEF20000016841F483
:101CE0007001016070470000FEE700009EB0FFF742
:101CF00057F96846002404303821CDE91944CDE96C
:101D00001744FEF7B1FA0120149018904FF4E01038
:101D10004FF4803102251D9014A8CDE91514CDE9AA
:101D20001B51FFF7B3FB28B1EFF3108072B600BF71
:101D3000FEE700BF0F20CDE90F054FF48060CDE92D
:101D400012040FA802211194FFF7D0FA20B1EFF38B
:101D5000108072B6FEE700BF202000901020079090
:101D60006846FFF7BBF928B1EFF3108072B600BFE9
:101D7000FEE700BFFFF70CFFFFF76CFF40F27004B7
:101D8000C2F200042046FEF7E7FB2046FEF7E2FA27
:101D90002046FEF783FBFBE7F1EE100A4FF6FF71DA
:101DA000C0F2C03120EA010040F04070E1EE100ABC
:101DB0007047000000000000000001020304060755
:101DC000080902030405060708090A0B0C0D0E0F8B
:101DD00010100102030405060708090A0B0C0D0E7A
:101DE0000F100000081E0008000000201000000076
:101DF000C4010008181E000810000020E8060000BA
:101E0000E0010008000000000100000010000000D8
:081E100000127A00000000003E
:040000050800018965
:00000001FF
